{
  "abi": [
    {
      "inputs": [],
      "stateMutability": "payable",
      "type": "constructor"
    },
    {
      "inputs": [],
      "name": "TokenNotReturned",
      "type": "error"
    },
    {
      "inputs": [],
      "name": "Unauthorized",
      "type": "error"
    },
    {
      "inputs": [],
      "name": "invalidPercentage",
      "type": "error"
    },
    {
      "anonymous": false,
      "inputs": [
        {
          "indexed": true,
          "internalType": "contract ERC20",
          "name": "token",
          "type": "address"
        },
        {
          "indexed": false,
          "internalType": "uint256",
          "name": "fee",
          "type": "uint256"
        }
      ],
      "name": "FeeUpdated",
      "type": "event"
    },
    {
      "anonymous": false,
      "inputs": [
        {
          "indexed": true,
          "internalType": "contract FlashBorrower",
          "name": "receiver",
          "type": "address"
        },
        {
          "indexed": true,
          "internalType": "contract ERC20",
          "name": "token",
          "type": "address"
        },
        {
          "indexed": false,
          "internalType": "uint256",
          "name": "amount",
          "type": "uint256"
        }
      ],
      "name": "FlashLoaned",
      "type": "event"
    },
    {
      "anonymous": false,
      "inputs": [
        {
          "indexed": true,
          "internalType": "contract ERC20",
          "name": "token",
          "type": "address"
        },
        {
          "indexed": false,
          "internalType": "uint256",
          "name": "amount",
          "type": "uint256"
        }
      ],
      "name": "Withdraw",
      "type": "event"
    },
    {
      "inputs": [
        {
          "internalType": "contract FlashBorrower",
          "name": "receiver",
          "type": "address"
        },
        {
          "internalType": "contract ERC20",
          "name": "token",
          "type": "address"
        },
        {
          "internalType": "uint256",
          "name": "amount",
          "type": "uint256"
        },
        {
          "internalType": "bytes",
          "name": "data",
          "type": "bytes"
        }
      ],
      "name": "execute",
      "outputs": [],
      "stateMutability": "payable",
      "type": "function"
    },
    {
      "inputs": [
        {
          "internalType": "contract ERC20",
          "name": "",
          "type": "address"
        }
      ],
      "name": "fees",
      "outputs": [
        {
          "internalType": "uint256",
          "name": "",
          "type": "uint256"
        }
      ],
      "stateMutability": "view",
      "type": "function"
    },
    {
      "inputs": [
        {
          "internalType": "contract ERC20",
          "name": "token",
          "type": "address"
        },
        {
          "internalType": "uint256",
          "name": "amount",
          "type": "uint256"
        }
      ],
      "name": "getFee",
      "outputs": [
        {
          "internalType": "uint256",
          "name": "",
          "type": "uint256"
        }
      ],
      "stateMutability": "view",
      "type": "function"
    },
    {
      "inputs": [],
      "name": "manager",
      "outputs": [
        {
          "internalType": "address",
          "name": "",
          "type": "address"
        }
      ],
      "stateMutability": "view",
      "type": "function"
    },
    {
      "inputs": [
        {
          "internalType": "contract ERC20",
          "name": "token",
          "type": "address"
        },
        {
          "internalType": "uint256",
          "name": "fee",
          "type": "uint256"
        }
      ],
      "name": "setFees",
      "outputs": [],
      "stateMutability": "payable",
      "type": "function"
    },
    {
      "inputs": [
        {
          "internalType": "contract ERC20",
          "name": "token",
          "type": "address"
        },
        {
          "internalType": "uint256",
          "name": "amount",
          "type": "uint256"
        }
      ],
      "name": "withdraw",
      "outputs": [],
      "stateMutability": "payable",
      "type": "function"
    }
  ],
  "bytecode": {
    "object": "0x60a0604052336080526080516107c461003060003960008181606c015281816101ad01526104ac01526107c46000f3fe6080604052600436106100555760003560e01c8063481c6a751461005a5780634edeb834146100ab5780635e5c6ada146100d95780639aefaff8146100ee578063f3fef3a314610101578063faaebd2114610114575b600080fd5b34801561006657600080fd5b5061008e7f000000000000000000000000000000000000000000000000000000000000000081565b6040516001600160a01b0390911681526020015b60405180910390f35b3480156100b757600080fd5b506100cb6100c63660046105ba565b610141565b6040519081526020016100a2565b6100ec6100e73660046105ba565b6101a2565b005b6100ec6100fc3660046105e6565b61026c565b6100ec61010f3660046105ba565b6104a1565b34801561012057600080fd5b506100cb61012f366004610685565b60006020819052908152604090205481565b6001600160a01b03821660009081526020819052604081205481036101685750600061019c565b6001600160a01b0383166000908152602081905260409020546127109061018f90846106bf565b61019991906106d6565b90505b92915050565b336001600160a01b037f000000000000000000000000000000000000000000000000000000000000000016146101ea576040516282b42960e81b815260040160405180910390fd5b61271081111561020d576040516314df912f60e31b815260040160405180910390fd5b816001600160a01b03167f6f0eaf2c2f89fb4cfe96a1dee5e764d60b52c7f48aaa590f0850e308aa1b953a8260405161024891815260200190565b60405180910390a26001600160a01b03909116600090815260208190526040902055565b6040516370a0823160e01b81523060048201526000906001600160a01b038616906370a0823190602401602060405180830381865afa1580156102b3573d6000803e3d6000fd5b505050506040513d601f19601f820116820180604052508101906102d791906106f8565b9050846001600160a01b0316866001600160a01b03167fa0c12115fa11a7606c079ce10f9f24539c97fcd319433b5d1e92795dde9ce4158660405161031e91815260200190565b60405180910390a360405163a9059cbb60e01b81526001600160a01b0387811660048301526024820186905286169063a9059cbb906044016020604051808303816000875af1158015610375573d6000803e3d6000fd5b505050506040513d601f19601f820116820180604052508101906103999190610711565b50604051634963710d60e01b81526001600160a01b03871690634963710d906103cc908890889088908890600401610733565b600060405180830381600087803b1580156103e657600080fd5b505af11580156103fa573d6000803e3d6000fd5b50506040516370a0823160e01b81523060048201526001600160a01b03881692506370a082319150602401602060405180830381865afa158015610442573d6000803e3d6000fd5b505050506040513d601f19601f8201168201806040525081019061046691906106f8565b6104708686610141565b61047a908361077b565b111561049957604051637c95cbab60e11b815260040160405180910390fd5b505050505050565b336001600160a01b037f000000000000000000000000000000000000000000000000000000000000000016146104e9576040516282b42960e81b815260040160405180910390fd5b816001600160a01b03167f884edad9ce6fa2440d8a54cc123490eb96d2768479d49ff9c7366125a94243648260405161052491815260200190565b60405180910390a260405163a9059cbb60e01b8152336004820152602481018290526001600160a01b0383169063a9059cbb906044016020604051808303816000875af1158015610579573d6000803e3d6000fd5b505050506040513d601f19601f8201168201806040525081019061059d9190610711565b505050565b6001600160a01b03811681146105b757600080fd5b50565b600080604083850312156105cd57600080fd5b82356105d8816105a2565b946020939093013593505050565b6000806000806000608086880312156105fe57600080fd5b8535610609816105a2565b94506020860135610619816105a2565b935060408601359250606086013567ffffffffffffffff8082111561063d57600080fd5b818801915088601f83011261065157600080fd5b81358181111561066057600080fd5b89602082850101111561067257600080fd5b9699959850939650602001949392505050565b60006020828403121561069757600080fd5b81356106a2816105a2565b9392505050565b634e487b7160e01b600052601160045260246000fd5b808202811582820484141761019c5761019c6106a9565b6000826106f357634e487b7160e01b600052601260045260246000fd5b500490565b60006020828403121561070a57600080fd5b5051919050565b60006020828403121561072357600080fd5b815180151581146106a257600080fd5b6001600160a01b0385168152602081018490526060604082018190528101829052818360808301376000818301608090810191909152601f909201601f191601019392505050565b8082018082111561019c5761019c6106a956fea26469706673582212202ea7008175ee956f766f01588fbfdda400bc66cc80695139e40c835524a4fbf864736f6c63430008110033",
    "linkReferences": {}
  },
  "methodIdentifiers": {
    "execute(address,address,uint256,bytes)": "9aefaff8",
    "fees(address)": "faaebd21",
    "getFee(address,uint256)": "4edeb834",
    "manager()": "481c6a75",
    "setFees(address,uint256)": "5e5c6ada",
    "withdraw(address,uint256)": "f3fef3a3"
  },
  "id": 19
}